{
  "contractName": "Ripit",
  "abi": [
    {
      "inputs": [],
      "payable": false,
      "stateMutability": "nonpayable",
      "type": "constructor",
      "signature": "constructor"
    },
    {
      "anonymous": false,
      "inputs": [
        {
          "indexed": false,
          "name": "index",
          "type": "uint256"
        }
      ],
      "name": "NewPost",
      "type": "event",
      "signature": "0x0de048fe4a0ee495f40725d38843d22f9ab4026b2b70b60e9a8255fb313fe164"
    },
    {
      "constant": true,
      "inputs": [],
      "name": "getLatestIndex",
      "outputs": [
        {
          "name": "",
          "type": "uint256"
        }
      ],
      "payable": false,
      "stateMutability": "view",
      "type": "function",
      "signature": "0xa971c739"
    },
    {
      "constant": false,
      "inputs": [
        {
          "name": "username",
          "type": "string"
        },
        {
          "name": "body",
          "type": "string"
        },
        {
          "name": "timeStamp",
          "type": "uint256"
        }
      ],
      "name": "post",
      "outputs": [],
      "payable": false,
      "stateMutability": "nonpayable",
      "type": "function",
      "signature": "0xe2ad2a5f"
    },
    {
      "constant": true,
      "inputs": [
        {
          "name": "index",
          "type": "uint256"
        }
      ],
      "name": "getPost",
      "outputs": [
        {
          "name": "username",
          "type": "string"
        },
        {
          "name": "body",
          "type": "string"
        },
        {
          "name": "timeStamp",
          "type": "uint256"
        }
      ],
      "payable": false,
      "stateMutability": "view",
      "type": "function",
      "signature": "0x40731c24"
    }
  ],
  "bytecode": "0x608060405234801561001057600080fd5b50600080819055506107e8806100276000396000f3fe608060405260043610610057576000357c0100000000000000000000000000000000000000000000000000000000900463ffffffff16806340731c241461005c578063a971c7391461009b578063e2ad2a5f146100c6575b600080fd5b34801561006857600080fd5b50610083600480360361007e9190810190610615565b6100ef565b60405161009293929190610683565b60405180910390f35b3480156100a757600080fd5b506100b06102e4565b6040516100bd91906106c8565b60405180910390f35b3480156100d257600080fd5b506100ed60048036036100e89190810190610596565b6102ed565b005b60608060006100fc610448565b6001600086815260200190815260200160002060806040519081016040529081600082018054600181600116156101000203166002900480601f0160208091040260200160405190810160405280929190818152602001828054600181600116156101000203166002900480156101b45780601f10610189576101008083540402835291602001916101b4565b820191906000526020600020905b81548152906001019060200180831161019757829003601f168201915b505050505081526020016001820160009054906101000a900473ffffffffffffffffffffffffffffffffffffffff1673ffffffffffffffffffffffffffffffffffffffff1673ffffffffffffffffffffffffffffffffffffffff168152602001600282018054600181600116156101000203166002900480601f0160208091040260200160405190810160405280929190818152602001828054600181600116156101000203166002900480156102ac5780601f10610281576101008083540402835291602001916102ac565b820191906000526020600020905b81548152906001019060200180831161028f57829003601f168201915b505050505081526020016003820154815250509050806000015181604001518260600151829250819150935093509350509193909250565b60008054905090565b60c88351111515156102fe57600080fd5b6105dc82511115151561031057600080fd5b6000811015151561032057600080fd5b6080604051908101604052808481526020013373ffffffffffffffffffffffffffffffffffffffff1681526020018381526020018281525060016000805481526020019081526020016000206000820151816000019080519060200190610388929190610487565b5060208201518160010160006101000a81548173ffffffffffffffffffffffffffffffffffffffff021916908373ffffffffffffffffffffffffffffffffffffffff16021790555060408201518160020190805190602001906103ec929190610487565b50606082015181600301559050507f0de048fe4a0ee495f40725d38843d22f9ab4026b2b70b60e9a8255fb313fe16460005460405161042b91906106c8565b60405180910390a160016000808282540192505081905550505050565b60806040519081016040528060608152602001600073ffffffffffffffffffffffffffffffffffffffff16815260200160608152602001600081525090565b828054600181600116156101000203166002900490600052602060002090601f016020900481019282601f106104c857805160ff19168380011785556104f6565b828001600101855582156104f6579182015b828111156104f55782518255916020019190600101906104da565b5b5090506105039190610507565b5090565b61052991905b8082111561052557600081600090555060010161050d565b5090565b90565b600082601f830112151561053f57600080fd5b813561055261054d82610710565b6106e3565b9150808252602083016020830185838301111561056e57600080fd5b61057983828461075b565b50505092915050565b600061058e8235610751565b905092915050565b6000806000606084860312156105ab57600080fd5b600084013567ffffffffffffffff8111156105c557600080fd5b6105d18682870161052c565b935050602084013567ffffffffffffffff8111156105ee57600080fd5b6105fa8682870161052c565b925050604061060b86828701610582565b9150509250925092565b60006020828403121561062757600080fd5b600061063584828501610582565b91505092915050565b60006106498261073c565b80845261065d81602086016020860161076a565b6106668161079d565b602085010191505092915050565b61067d81610747565b82525050565b6000606082019050818103600083015261069d818661063e565b905081810360208301526106b1818561063e565b90506106c06040830184610674565b949350505050565b60006020820190506106dd6000830184610674565b92915050565b6000604051905081810181811067ffffffffffffffff8211171561070657600080fd5b8060405250919050565b600067ffffffffffffffff82111561072757600080fd5b601f19601f8301169050602081019050919050565b600081519050919050565b6000819050919050565b6000819050919050565b82818337600083830152505050565b60005b8381101561078857808201518184015260208101905061076d565b83811115610797576000848401525b50505050565b6000601f19601f830116905091905056fea265627a7a723058206f03a8ce5b7c25ce96eb96b9a6b231235a213859a3d2c6083a698df93e7afe666c6578706572696d656e74616cf50037",
  "source": "pragma solidity >=0.4.22 <0.6.0;\npragma experimental ABIEncoderV2;\n\ncontract Ripit {\n\n    struct Post\n    {\n        string actualUsername;\n        address poster;\n        string body;\n        uint timeStamp;\n    }\n    uint lastPostIndex;\n    mapping(uint=>Post) posts;\n\n    event NewPost(uint index);\n\n    constructor() public\n    {\n        lastPostIndex= 0;\n    }\n\n    function getLatestIndex()public view returns(uint)\n    {\n        return lastPostIndex;\n    }\n\n    function post(string memory username,string memory body,uint timeStamp) public\n    {\n        require(bytes(username).length <= 200);\n        require(bytes(body).length <= 1500);\n        require(timeStamp >= 0);\n        \n        posts[lastPostIndex] = Post(username,msg.sender,body,timeStamp);\n        emit NewPost(lastPostIndex);\n        lastPostIndex += 1;\n    }\n    \n    function getPost(uint index) public view returns (string memory username,string memory body, uint timeStamp)\n    {\n        Post memory pp = posts[index];\n        return (pp.actualUsername,pp.body,pp.timeStamp);\n        \n    }\n}\n",
  "sourcePath": "/Users/barna/Documents/Blockchain/ripit/ripit/contracts/Ripit.sol",
  "compiler": {
    "name": "solc",
    "version": "0.5.0+commit.1d4f565a.Emscripten.clang"
  },
  "schemaVersion": "3.0.3",
  "updatedAt": "2019-03-29T10:33:47.990Z",
  "devdoc": {
    "methods": {}
  },
  "userdoc": {
    "methods": {}
  }
}