{
  "contractName": "Ripit",
  "abi": [
    {
      "inputs": [],
      "payable": false,
      "stateMutability": "nonpayable",
      "type": "constructor",
      "signature": "constructor"
    },
    {
      "anonymous": false,
      "inputs": [
        {
          "indexed": false,
          "name": "index",
          "type": "uint256"
        }
      ],
      "name": "NewPost",
      "type": "event",
      "signature": "0x0de048fe4a0ee495f40725d38843d22f9ab4026b2b70b60e9a8255fb313fe164"
    },
    {
      "constant": true,
      "inputs": [],
      "name": "getLatestIndex",
      "outputs": [
        {
          "name": "",
          "type": "uint256"
        }
      ],
      "payable": false,
      "stateMutability": "view",
      "type": "function",
      "signature": "0xa971c739"
    },
    {
      "constant": false,
      "inputs": [
        {
          "name": "username",
          "type": "string"
        },
        {
          "name": "body",
          "type": "string"
        },
        {
          "name": "timeStamp",
          "type": "uint256"
        }
      ],
      "name": "post",
      "outputs": [],
      "payable": false,
      "stateMutability": "nonpayable",
      "type": "function",
      "signature": "0xe2ad2a5f"
    },
    {
      "constant": true,
      "inputs": [
        {
          "name": "index",
          "type": "uint256"
        }
      ],
      "name": "getPost",
      "outputs": [
        {
          "name": "username",
          "type": "string"
        },
        {
          "name": "body",
          "type": "string"
        },
        {
          "name": "timeStamp",
          "type": "uint256"
        }
      ],
      "payable": false,
      "stateMutability": "view",
      "type": "function",
      "signature": "0x40731c24"
    }
  ],
  "bytecode": "0x608060405234801561001057600080fd5b50600080819055506107af806100276000396000f3fe608060405260043610610057576000357c0100000000000000000000000000000000000000000000000000000000900463ffffffff16806340731c241461005c578063a971c7391461009b578063e2ad2a5f146100c6575b600080fd5b34801561006857600080fd5b50610083600480360361007e91908101906105dc565b6100ef565b6040516100929392919061064a565b60405180910390f35b3480156100a757600080fd5b506100b06102e4565b6040516100bd919061068f565b60405180910390f35b3480156100d257600080fd5b506100ed60048036036100e8919081019061055d565b6102ed565b005b60608060006100fc61040f565b6001600086815260200190815260200160002060806040519081016040529081600082018054600181600116156101000203166002900480601f0160208091040260200160405190810160405280929190818152602001828054600181600116156101000203166002900480156101b45780601f10610189576101008083540402835291602001916101b4565b820191906000526020600020905b81548152906001019060200180831161019757829003601f168201915b505050505081526020016001820160009054906101000a900473ffffffffffffffffffffffffffffffffffffffff1673ffffffffffffffffffffffffffffffffffffffff1673ffffffffffffffffffffffffffffffffffffffff168152602001600282018054600181600116156101000203166002900480601f0160208091040260200160405190810160405280929190818152602001828054600181600116156101000203166002900480156102ac5780601f10610281576101008083540402835291602001916102ac565b820191906000526020600020905b81548152906001019060200180831161028f57829003601f168201915b505050505081526020016003820154815250509050806000015181604001518260600151829250819150935093509350509193909250565b60008054905090565b60c88351111515156102fe57600080fd5b6105dc82511115151561031057600080fd5b6000811015151561032057600080fd5b6080604051908101604052808481526020013373ffffffffffffffffffffffffffffffffffffffff168152602001838152602001828152506001600080548152602001908152602001600020600082015181600001908051906020019061038892919061044e565b5060208201518160010160006101000a81548173ffffffffffffffffffffffffffffffffffffffff021916908373ffffffffffffffffffffffffffffffffffffffff16021790555060408201518160020190805190602001906103ec92919061044e565b506060820151816003015590505060016000808282540192505081905550505050565b60806040519081016040528060608152602001600073ffffffffffffffffffffffffffffffffffffffff16815260200160608152602001600081525090565b828054600181600116156101000203166002900490600052602060002090601f016020900481019282601f1061048f57805160ff19168380011785556104bd565b828001600101855582156104bd579182015b828111156104bc5782518255916020019190600101906104a1565b5b5090506104ca91906104ce565b5090565b6104f091905b808211156104ec5760008160009055506001016104d4565b5090565b90565b600082601f830112151561050657600080fd5b8135610519610514826106d7565b6106aa565b9150808252602083016020830185838301111561053557600080fd5b610540838284610722565b50505092915050565b60006105558235610718565b905092915050565b60008060006060848603121561057257600080fd5b600084013567ffffffffffffffff81111561058c57600080fd5b610598868287016104f3565b935050602084013567ffffffffffffffff8111156105b557600080fd5b6105c1868287016104f3565b92505060406105d286828701610549565b9150509250925092565b6000602082840312156105ee57600080fd5b60006105fc84828501610549565b91505092915050565b600061061082610703565b808452610624816020860160208601610731565b61062d81610764565b602085010191505092915050565b6106448161070e565b82525050565b600060608201905081810360008301526106648186610605565b905081810360208301526106788185610605565b9050610687604083018461063b565b949350505050565b60006020820190506106a4600083018461063b565b92915050565b6000604051905081810181811067ffffffffffffffff821117156106cd57600080fd5b8060405250919050565b600067ffffffffffffffff8211156106ee57600080fd5b601f19601f8301169050602081019050919050565b600081519050919050565b6000819050919050565b6000819050919050565b82818337600083830152505050565b60005b8381101561074f578082015181840152602081019050610734565b8381111561075e576000848401525b50505050565b6000601f19601f830116905091905056fea265627a7a723058201e548df865fcc04e237816086343ff2a7c4600fc2e3218d3759bf497b9d931226c6578706572696d656e74616cf50037",
  "source": "pragma solidity >=0.4.22 <0.6.0;\npragma experimental ABIEncoderV2;\n\ncontract Ripit {\n\n    struct Post\n    {\n        string actualUsername;\n        address poster;\n        string body;\n        uint timeStamp;\n    }\n    uint lastPostIndex;\n    mapping(uint=>Post) posts;\n\n    event NewPost(uint index);\n\n    constructor() public\n    {\n        lastPostIndex= 0;\n    }\n\n    function getLatestIndex()public view returns(uint)\n    {\n        return lastPostIndex;\n    }\n\n    function post(string memory username,string memory body,uint timeStamp) public\n    {\n        require(bytes(username).length <= 200);\n        require(bytes(body).length <= 1500);\n        require(timeStamp >= 0);\n        \n        posts[lastPostIndex] = Post(username,msg.sender,body,timeStamp);\n        lastPostIndex += 1;\n    }\n    \n    function getPost(uint index) public view returns (string memory username,string memory body, uint timeStamp)\n    {\n        Post memory pp = posts[index];\n        return (pp.actualUsername,pp.body,pp.timeStamp);\n        \n    }\n}\n",
  "sourcePath": "/Users/barna/Documents/Blockchain/ripit/ripit/contracts/Ripit.sol",
  "compiler": {
    "name": "solc",
    "version": "0.5.0+commit.1d4f565a.Emscripten.clang"
  },
  "schemaVersion": "3.0.3",
  "updatedAt": "2019-03-29T08:01:22.421Z",
  "devdoc": {
    "methods": {}
  },
  "userdoc": {
    "methods": {}
  }
}