{
  "contractName": "Ripit",
  "abi": [
    {
      "inputs": [],
      "payable": false,
      "stateMutability": "nonpayable",
      "type": "constructor",
      "signature": "constructor"
    },
    {
      "anonymous": false,
      "inputs": [
        {
          "indexed": false,
          "name": "index",
          "type": "uint256"
        }
      ],
      "name": "NewPost",
      "type": "event",
      "signature": "0x0de048fe4a0ee495f40725d38843d22f9ab4026b2b70b60e9a8255fb313fe164"
    },
    {
      "constant": true,
      "inputs": [
        {
          "name": "a",
          "type": "string"
        },
        {
          "name": "b",
          "type": "string"
        }
      ],
      "name": "compareStrings",
      "outputs": [
        {
          "name": "",
          "type": "bool"
        }
      ],
      "payable": false,
      "stateMutability": "pure",
      "type": "function",
      "signature": "0xbed34bba"
    },
    {
      "constant": true,
      "inputs": [
        {
          "name": "begin",
          "type": "uint256"
        },
        {
          "name": "end",
          "type": "uint256"
        },
        {
          "name": "text",
          "type": "string"
        }
      ],
      "name": "getSlice",
      "outputs": [
        {
          "name": "",
          "type": "string"
        }
      ],
      "payable": false,
      "stateMutability": "pure",
      "type": "function",
      "signature": "0x7f60b20a"
    },
    {
      "constant": true,
      "inputs": [],
      "name": "getLatestIndex",
      "outputs": [
        {
          "name": "",
          "type": "uint256"
        }
      ],
      "payable": false,
      "stateMutability": "view",
      "type": "function",
      "signature": "0xa971c739"
    },
    {
      "constant": false,
      "inputs": [
        {
          "name": "username",
          "type": "string"
        },
        {
          "name": "body",
          "type": "string"
        },
        {
          "name": "timeStamp",
          "type": "uint256"
        }
      ],
      "name": "post",
      "outputs": [],
      "payable": false,
      "stateMutability": "nonpayable",
      "type": "function",
      "signature": "0xe2ad2a5f"
    },
    {
      "constant": true,
      "inputs": [
        {
          "name": "index",
          "type": "uint256"
        }
      ],
      "name": "getPost",
      "outputs": [
        {
          "name": "username",
          "type": "string"
        },
        {
          "name": "body",
          "type": "string"
        },
        {
          "name": "timeStamp",
          "type": "uint256"
        }
      ],
      "payable": false,
      "stateMutability": "view",
      "type": "function",
      "signature": "0x40731c24"
    }
  ],
  "bytecode": "0x608060405234801561001057600080fd5b5060008081905550610ba0806100276000396000f3fe60806040526004361061006d576000357c0100000000000000000000000000000000000000000000000000000000900463ffffffff16806340731c24146100725780637f60b20a146100b1578063a971c739146100ee578063bed34bba14610119578063e2ad2a5f14610156575b600080fd5b34801561007e57600080fd5b506100996004803603610094919081019061090e565b61017f565b6040516100a893929190610a2f565b60405180910390f35b3480156100bd57600080fd5b506100d860048036036100d39190810190610937565b610374565b6040516100e59190610a0d565b60405180910390f35b3480156100fa57600080fd5b50610103610478565b6040516101109190610a74565b60405180910390f35b34801561012557600080fd5b50610140600480360361013b9190810190610823565b610481565b60405161014d91906109f2565b60405180910390f35b34801561016257600080fd5b5061017d6004803603610178919081019061088f565b610574565b005b606080600061018c6106d5565b6001600086815260200190815260200160002060806040519081016040529081600082018054600181600116156101000203166002900480601f0160208091040260200160405190810160405280929190818152602001828054600181600116156101000203166002900480156102445780601f1061021957610100808354040283529160200191610244565b820191906000526020600020905b81548152906001019060200180831161022757829003601f168201915b505050505081526020016001820160009054906101000a900473ffffffffffffffffffffffffffffffffffffffff1673ffffffffffffffffffffffffffffffffffffffff1673ffffffffffffffffffffffffffffffffffffffff168152602001600282018054600181600116156101000203166002900480601f01602080910402602001604051908101604052809291908181526020018280546001816001161561010002031660029004801561033c5780601f106103115761010080835404028352916020019161033c565b820191906000526020600020905b81548152906001019060200180831161031f57829003601f168201915b505050505081526020016003820154815250509050806000015181604001518260600151829250819150935093509350509193909250565b6060806001858503016040519080825280601f01601f1916602001820160405280156103af5781602001600182028038833980820191505090505b50905060008090505b8585038111151561046c57836001878301038151811015156103d657fe5b9060200101517f010000000000000000000000000000000000000000000000000000000000000090047f010000000000000000000000000000000000000000000000000000000000000002828281518110151561042f57fe5b9060200101907effffffffffffffffffffffffffffffffffffffffffffffffffffffffffffff1916908160001a90535080806001019150506103b8565b50809150509392505050565b60008054905090565b6000816040516020018082805190602001908083835b6020831015156104bc5780518252602082019150602081019050602083039250610497565b6001836020036101000a03801982511681845116808217855250505050505090500191505060405160208183030381529060405280519060200120836040516020018082805190602001908083835b602083101515610530578051825260208201915060208101905060208303925061050b565b6001836020036101000a0380198251168184511680821785525050505050509050019150506040516020818303038152906040528051906020012014905092915050565b60c883511115151561058557600080fd5b6105dc82511115151561059757600080fd5b600081101515156105a757600080fd5b60608390506080604051908101604052808281526020013373ffffffffffffffffffffffffffffffffffffffff1681526020018481526020018381525060016000805481526020019081526020016000206000820151816000019080519060200190610614929190610714565b5060208201518160010160006101000a81548173ffffffffffffffffffffffffffffffffffffffff021916908373ffffffffffffffffffffffffffffffffffffffff1602179055506040820151816002019080519060200190610678929190610714565b50606082015181600301559050507f0de048fe4a0ee495f40725d38843d22f9ab4026b2b70b60e9a8255fb313fe1646000546040516106b79190610a74565b60405180910390a16001600080828254019250508190555050505050565b60806040519081016040528060608152602001600073ffffffffffffffffffffffffffffffffffffffff16815260200160608152602001600081525090565b828054600181600116156101000203166002900490600052602060002090601f016020900481019282601f1061075557805160ff1916838001178555610783565b82800160010185558215610783579182015b82811115610782578251825591602001919060010190610767565b5b5090506107909190610794565b5090565b6107b691905b808211156107b257600081600090555060010161079a565b5090565b90565b600082601f83011215156107cc57600080fd5b81356107df6107da82610abc565b610a8f565b915080825260208301602083018583830111156107fb57600080fd5b610806838284610b13565b50505092915050565b600061081b8235610b09565b905092915050565b6000806040838503121561083657600080fd5b600083013567ffffffffffffffff81111561085057600080fd5b61085c858286016107b9565b925050602083013567ffffffffffffffff81111561087957600080fd5b610885858286016107b9565b9150509250929050565b6000806000606084860312156108a457600080fd5b600084013567ffffffffffffffff8111156108be57600080fd5b6108ca868287016107b9565b935050602084013567ffffffffffffffff8111156108e757600080fd5b6108f3868287016107b9565b92505060406109048682870161080f565b9150509250925092565b60006020828403121561092057600080fd5b600061092e8482850161080f565b91505092915050565b60008060006060848603121561094c57600080fd5b600061095a8682870161080f565b935050602061096b8682870161080f565b925050604084013567ffffffffffffffff81111561098857600080fd5b610994868287016107b9565b9150509250925092565b6109a781610af3565b82525050565b60006109b882610ae8565b8084526109cc816020860160208601610b22565b6109d581610b55565b602085010191505092915050565b6109ec81610aff565b82525050565b6000602082019050610a07600083018461099e565b92915050565b60006020820190508181036000830152610a2781846109ad565b905092915050565b60006060820190508181036000830152610a4981866109ad565b90508181036020830152610a5d81856109ad565b9050610a6c60408301846109e3565b949350505050565b6000602082019050610a8960008301846109e3565b92915050565b6000604051905081810181811067ffffffffffffffff82111715610ab257600080fd5b8060405250919050565b600067ffffffffffffffff821115610ad357600080fd5b601f19601f8301169050602081019050919050565b600081519050919050565b60008115159050919050565b6000819050919050565b6000819050919050565b82818337600083830152505050565b60005b83811015610b40578082015181840152602081019050610b25565b83811115610b4f576000848401525b50505050565b6000601f19601f830116905091905056fea265627a7a72305820d65c095f5713220f2571ab4ffc269ce6a738cb30fe173231086da15e73350f236c6578706572696d656e74616cf50037",
  "source": "pragma solidity >=0.4.22 <0.6.0;\npragma experimental ABIEncoderV2;\n\ncontract Ripit {\n\n    struct Post\n    {\n        string actualUsername;\n        address poster;\n        string body;\n        uint timeStamp;\n    }\n    uint lastPostIndex;\n    mapping(uint=>Post) posts;\n\n    event NewPost(uint index);\n\n    constructor() public\n    {\n        lastPostIndex= 0;\n    }\n\n\n    function compareStrings (string memory a, string memory b) public pure returns (bool) \n    {\n       return ( keccak256(abi.encodePacked(a)) == keccak256(abi.encodePacked(b)) );\n    }\n\n    function getSlice(uint256 begin, uint256 end, string memory text) public pure returns (string memory) {\n        bytes memory a = new bytes(end-begin+1);\n        for(uint i=0;i<=end-begin;i++){\n            a[i] = bytes(text)[i+begin-1];\n        }\n        return string(a);    \n    }\n\n    function getLatestIndex()public view returns(uint)\n    {\n        return lastPostIndex;\n    }\n\n\n\n    function post(string memory username,string memory body,uint timeStamp) public\n    {\n        require(bytes(username).length <= 200);\n        require(bytes(body).length <= 1500);\n        require(timeStamp >= 0);\n        \n        string memory usernameFinal = username;\n\n        posts[lastPostIndex] = Post(usernameFinal,msg.sender,body,timeStamp);\n        emit NewPost(lastPostIndex);\n        lastPostIndex += 1;\n    }\n    \n    function getPost(uint index) public view returns (string memory username,string memory body, uint timeStamp)\n    {\n        Post memory pp = posts[index];\n        return (pp.actualUsername,pp.body,pp.timeStamp);\n        \n    }\n}\n",
  "sourcePath": "/Users/barna/Documents/Blockchain/ripit/ripit/contracts/Ripit.sol",
  "compiler": {
    "name": "solc",
    "version": "0.5.0+commit.1d4f565a.Emscripten.clang"
  },
  "schemaVersion": "3.0.3",
  "updatedAt": "2019-03-30T13:46:53.679Z",
  "devdoc": {
    "methods": {}
  },
  "userdoc": {
    "methods": {}
  }
}