{
  "contractName": "TipGame",
  "abi": [
    {
      "inputs": [
        {
          "name": "solution",
          "type": "bytes32"
        }
      ],
      "payable": false,
      "stateMutability": "nonpayable",
      "type": "constructor"
    },
    {
      "constant": false,
      "inputs": [],
      "name": "givePool",
      "outputs": [],
      "payable": true,
      "stateMutability": "payable",
      "type": "function"
    },
    {
      "constant": true,
      "inputs": [
        {
          "name": "source",
          "type": "string"
        }
      ],
      "name": "stringToBytes32",
      "outputs": [
        {
          "name": "result",
          "type": "bytes32"
        }
      ],
      "payable": false,
      "stateMutability": "pure",
      "type": "function"
    },
    {
      "constant": true,
      "inputs": [
        {
          "name": "test",
          "type": "string"
        }
      ],
      "name": "keccakGetter",
      "outputs": [
        {
          "name": "",
          "type": "bytes32"
        }
      ],
      "payable": false,
      "stateMutability": "view",
      "type": "function"
    },
    {
      "constant": false,
      "inputs": [
        {
          "name": "guess",
          "type": "string"
        }
      ],
      "name": "makeATip",
      "outputs": [
        {
          "name": "",
          "type": "bool"
        }
      ],
      "payable": false,
      "stateMutability": "nonpayable",
      "type": "function"
    }
  ],
  "bytecode": "0x608060405234801561001057600080fd5b5060405160208061045f8339810180604052602081101561003057600080fd5b8101908080519060200190929190505050806000819055506000600181905550506103ff806100606000396000f3fe608060405260043610610062576000357c0100000000000000000000000000000000000000000000000000000000900463ffffffff16806384efe96b1461006757806390e3e33514610147578063cc39c3ed14610151578063cfb519281461022d575b600080fd5b34801561007357600080fd5b5061012d6004803603602081101561008a57600080fd5b81019080803590602001906401000000008111156100a757600080fd5b8201836020820111156100b957600080fd5b803590602001918460018302840111640100000000831117156100db57600080fd5b91908080601f016020809104026020016040519081016040528093929190818152602001838380828437600081840152601f19601f820116905080830192505050505050509192919290505050610309565b604051808215151515815260200191505060405180910390f35b61014f610384565b005b34801561015d57600080fd5b506102176004803603602081101561017457600080fd5b810190808035906020019064010000000081111561019157600080fd5b8201836020820111156101a357600080fd5b803590602001918460018302840111640100000000831117156101c557600080fd5b91908080601f016020809104026020016040519081016040528093929190818152602001838380828437600081840152601f19601f820116905080830192505050505050509192919290505050610396565b6040518082815260200191505060405180910390f35b34801561023957600080fd5b506102f36004803603602081101561025057600080fd5b810190808035906020019064010000000081111561026d57600080fd5b82018360208201111561027f57600080fd5b803590602001918460018302840111640100000000831117156102a157600080fd5b91908080601f016020809104026020016040519081016040528093929190818152602001838380828437600081840152601f19601f8201169050808301925050505050505091929192905050506103a7565b6040518082815260200191505060405180910390f35b6000808280519060200120905060008054905080821415610378573373ffffffffffffffffffffffffffffffffffffffff166108fc6001549081150290604051600060405180830381858888f1935050505015801561036c573d6000803e3d6000fd5b5060019250505061037f565b6000925050505b919050565b34600160008282540192505081905550565b600081805190602001209050919050565b600060608290506000815114156103c55760006001029150506103ce565b60208301519150505b91905056fea165627a7a72305820b02e9ba2fd9d2f288813a1248da9364e5840fcfe5f817cd903505befcdfa150a0029",
  "source": "pragma solidity >=0.4.22 <0.6.0;\n\ncontract TipGame {\n\n    bytes32 solutionHash;\n    uint pricePool;\n\n    constructor(bytes32 solution) public\n    {\n        solutionHash = (solution);\n        pricePool = 0;\n    }\n\n    function givePool() public payable\n    {\n        pricePool += msg.value;\n    }\n    \n    function stringToBytes32(string memory source) public pure returns (bytes32 result) {\n        bytes memory tempEmptyStringTest = bytes(source);\n        if (tempEmptyStringTest.length == 0) {\n            return 0x0;\n        }\n    \n        assembly {\n            result := mload(add(source, 32))\n        }\n    }\n\n    function keccakGetter(string memory test) public view returns (bytes32)\n    {\n        return (keccak256(bytes(test)));\n    }\n\n    function makeATip(string memory guess) public returns (bool)\n    {\n        bytes32 hs = (keccak256(bytes(guess)));\n        bytes32 sol = (solutionHash);\n        if (hs == sol)\n        {\n            //wins\n            msg.sender.transfer(pricePool);\n            return true;\n        }\n        return false;\n    }\n}\n",
  "sourcePath": "/Users/barna/Documents/Blockchain/ripit/contracts/TipGame.sol",
  "compiler": {
    "name": "solc",
    "version": "0.5.0+commit.1d4f565a.Emscripten.clang"
  },
  "schemaVersion": "3.0.3",
  "updatedAt": "2019-03-28T14:07:53.197Z",
  "devdoc": {
    "methods": {}
  },
  "userdoc": {
    "methods": {}
  }
}